:100000000C942A000C943F000C943F000C943F0089
:100010000C943F000C943F000C943F000C943F0064
:100020000C943F000C943F000C943F000C943F0054
:100030000C943F000C943F000C943F000C943F0044
:100040000C943F000C943F000C943F000C943F0034
:100050000C943F0011241FBECFE5D8E0DEBFCDBF1A
:1000600010E0A0E6B0E0E8EEF1E002C005900D92ED
:10007000AC36B107D9F70E94E7000C94F2000C945B
:100080000000969A86E08A95F1F700C09698089548
:10009000929A939820E030E090E09098AC01022E84
:1000A00002C0559547950A94E2F740FF02C0919A25
:1000B00001C09198909A2F5F3F4F2830310569F722
:1000C0009298939A0C944100949A95980E944800B3
:1000D0008FE08A95F1F70895949895980E944800CA
:1000E0008FE08A95F1F7089587E893E10197F1F79A
:1000F00000C0000081B38F6781BB82B3807882BB70
:1001000080E30E94480088E30E946C008CE00E941B
:100110006C0086E00E946C0081E00E946C0087E821
:1001200093E10197F1F700C00000089581E00E947B
:100130006C0083EF91E00197F1F700C00000089593
:1001400082E00E946C0083EF91E00197F1F700C01C
:1001500000000895613019F0623019F00895805858
:1001600001C080540C946C00CF93DF93EC01899113
:10017000882319F00E946400FACFDF91CF9108958F
:10018000EF92FF921F93CF93DF931F92CDB7DEB70D
:10019000182F87E099830E946C00E12E9981F92E37
:1001A000F70181917F01882349F00E9464008FE468
:1001B00093EC0197F1F700C00000F2CF86E00F90BA
:1001C000DF91CF911F91FF90EF900C946C000E94F3
:1001D000740061E084E10E94AA0080E690E00E9441
:0801E000B400F7CFF894FFCF43
:0C01E80048656C6C6F20616761696E00F7
:00000001FF
