:100000000C942A000C9448000C9448000C9448006E
:100010000C9448000C9448000C9448000C94480040
:100020000C9448000C9448000C9448000C94480030
:100030000C9448000C9448000C9448000C94480020
:100040000C9448000C9448000C9448000C94480010
:100050000C94480011241FBECFE5D8E0DEBFCDBF11
:1000600010E0A0E6B0E0E0EBF1E003C0C895319607
:100070000D92A836B107D1F710E0A8E6B0E001C0B4
:100080001D92A836B107E1F70E944A000C94D600F1
:100090000C9400000E94860080E690E00E94C2005E
:1000A0000E94A700FFCF969A86E08A95F1F796986E
:1000B0000895929A939820E030E090E09098AC01F7
:1000C000022E02C0559547950A94E2F740FF02C000
:1000D000919A01C09198909A2F5F3F4F2830310537
:1000E00069F79298939A0E9453000895949A95986C
:1000F0000E9459008FE08A95F1F708959498959899
:100100000E9459008FE08A95F1F70895CF93DF930D
:10011000C8E8D3E1CE010197F1F781B38F6781BBC6
:1001200082B3807882BB80E30E94590088E30E94FA
:100130007E008CE00E947E0086E00E947E0081E0CE
:100140000E947E002197F1F7DF91CF91089581E021
:100150000E947E0084EF91E00197F1F7089582E01C
:100160000E947E0084EF91E00197F1F708956130DD
:1001700019F0623031F402C0805801C080540E94EE
:100180007E000895EF92FF92CF93DF93E82EE70170
:100190007E01F92EE70102C00E9476008991882332
:1001A000D9F7DF91CF91FF90EF900895F894FFCFAA
:0801B000546573742032200035
:00000001FF
